:020000020000FC
:100000000FEF0DBF18E01EBF3F065B4F666D7D070B
:100010007F6F777C395E79716FE080E000E000935C
:10002000C10000EF07B90FE008B90FE70AB920E0F7
:1000300050E0F0E0E8E0E20F24910FE304B900E0C3
:1000400005B90E94630040E0E0E02BB9309B0E94BC
:100050005900319B0E945000A5B3A130B1F7403147
:1000600089F1A4E6A6BDA89AE395E43671F7EE27D8
:100070004395942F95B9541741F7349A742F571715
:1000800021F740E0E2CFA5B3A130E9F7A4E6A6BD91
:10009000A89AE395E436B9F7EE27309BF4CFD5CF95
:1000A00056135395252FF0E0E8E0E20F24912BB989
:1000B000EACF58135A95252FF0E0E8E0E20F24919B
:1000C0002BB9E1CF40E005E005BD04E606BD08958B
:00000001FF
