:100000000C9434000C9451000C9451000C94510049
:100010000C9451000C9451000C9451000C9451001C
:100020000C9451000C9451000C9451000C9451000C
:100030000C9451000C9451000C9451000C945100FC
:100040000C9451000C9451000C942D010C9451000F
:100050000C9451000C9499010C9451000C94510093
:100060000C9451000C94510011241FBECFEFD8E026
:10007000DEBFCDBF11E0A0E0B1E0EAE9F3E002C0ED
:1000800005900D92AC39B107D9F721E0ACE9B1E0A8
:1000900001C01D92A03AB207E1F70E948E000C94B5
:1000A000CB010C9400008AB18E7F8AB98AB182603C
:1000B0008AB91092C00088E98093C10086E08093DD
:1000C000C20087E690E09093C5008093C400089535
:1000D00080E680937C008FE880937A00EEE7F0E082
:1000E00080818160808308959091C00095FFFCCF4E
:1000F0008093C60008950F931F93CF938C01C0E0A7
:1001000003C00E947400CF5FF801EC0FF11D8081E5
:100110008111F7CFCF911F910F9108958FEF84B97F
:100120008AB90E9453000E946800789480E091E0B0
:100130000E947B0080919C018230F9F0833071F144
:100140008130C1F78AE00E94740083E191E00E944F
:100150007B008AE00E9474008AE291E00E947B00AA
:100160008AE00E94740080E491E00E947B008AE0B3
:100170000E94740010929C01DDCFEAE7F0E08081DC
:100180008064808310929C012FEF86E791E02150DC
:1001900080409040E1F700C00000CCCF8AE00E9490
:1001A000740089E591E00E947B008AE00E9474005F
:1001B00010929C01BFCF0F931F93CF93DF93D82F43
:1001C000CDEC8C9F812D1124182F16951695169520
:1001D000110F912F990F990F190F9D2F911B192F07
:1001E0008695869586958C9FC12D1124C695C695BA
:1001F000C695CC0F9C2F990F990FC90F8C1BC82F38
:1002000009E2D09F012D112402950F7081E791E042
:100210000E947B0080E3800F0E94740080E38C0FBB
:100220000E94740080E3810F0E9474008AE00E94A3
:1002300074008DE00E9474008D2F90E0880F991F4C
:10024000880F991F8BB9D295D695D695D370D5B90D
:10025000DF91CF911F910F9108951F920F920FB6CA
:100260000F9211242F933F934F935F936F937F933C
:100270008F939F93AF93BF93EF93FF938091C600AB
:1002800080939F0180919F018A3009F441C0809141
:100290009F018D30E9F180919C01811118C08091FE
:1002A0009F01813331F480939E0182E080939C0111
:1002B0002FC080919F01823331F480939E0183E0AF
:1002C00080939C0125C081E080939C0121C0809196
:1002D0009C018330E9F487E891E00E947B008091E3
:1002E0009F010E9474008AE00E94740080919F0127
:1002F00090E0880F991F880F991F8BB980919F01FB
:10030000829586958695837085B981E080939C015E
:10031000FF91EF91BF91AF919F918F917F916F91DD
:100320005F914F913F912F910F900FBE0F901F90B3
:1003300018951F920F920FB60F9211242F933F938F
:100340004F935F936F937F938F939F93AF93BF93DD
:10035000EF93FF938091790080939D0180919D019F
:100360000E94DB00EAE7F0E080818061808381E029
:1003700080939C01FF91EF91BF91AF919F918F91DD
:100380007F916F915F914F913F912F910F900FBE91
:0A0390000F901F901895F894FFCF0E
:10039A000A53697374656D6120496E6963696164A2
:1003AA006F0A0053656C656363696F6E6520756ECD
:1003BA0061206F7063696F6E3A00312E204C65655B
:1003CA007220506F74656E63696F6D6574726F0029
:1003DA00322E20456E7669617220636172616374A0
:1003EA00657220415343494900496E6772657365D6
:1003FA002063617261637465722041534349493ACB
:10040A000056616C6F7220506F74656E63696F6D10
:10041A006574726F3A200043617261637465722079
:0C042A00726563696269646F3A2000002B
:00000001FF
