:020000020000FC
:040000000C940A0052
:100010000C9422000FEF0DBF18E01EBF0FEF04B9C4
:1000200000E005B90FEF0AB900E007B90FE308B91E
:1000300003E000936C0002E000936800789440E0D5
:1000400045B9FECF0F930FB70F9326B120FD0C9447
:1000500031000E943F004395403161F440E00C9430
:100060003A0021FD0C943A000E943F004A954F3F10
:1000700009F44FE0D99A0F910FBF0F91189580E0C6
:1000800090E0AEEE83958030E9F793959030D1F70C
:08009000A395A030B9F7089513
:00000001FF
