S00D00004C61625F362E7372656373
S11300000C9434000C9451000C9451000C94510045
S11300100C9451000C9451000C9451000C94510018
S11300200C9451000C9451000C9451000C94510008
S11300300C9451000C9451000C9451000C945100F8
S11300400C9451000C9451000C94DE000C9451005B
S11300500C9451000C9451000C9451000C945100D8
S11300600C9451000C94510011241FBECFEFD8E022
S1130070DEBFCDBF11E0A0E0B1E0E0EEF1E002C0F0
S113008005900D92A83BB107D9F721E0A8EBB1E0A8
S113009001C01D92A93BB207E1F70E9492000C94A3
S11300A0EE000C9400008AB18E7F8AB98AB1826016
S11300B08AB987E690E09093C5008093C4001092BB
S11300C0C00088E98093C10086E08093C20008954F
S11300D09091C00095FFFCCF8093C60008950F93C4
S11300E01F93CF938C01C0E003C00E946800CF5FD0
S11300F0F801EC0FF11D80818111F7CFCF911F9191
S11301000F910895282F30E0220F331F220F331F41
S11301102BB9829586958695837085B98BB182605B
S11301208BB908958FEF84B98AB90E9453007894EB
S113013080E091E00E946F008AE291E00E946F00EB
S11301408CE491E00E946F0082E791E00E946F00CE
S11301508091B801882359F18091B8010E948200EE
S11301608BE991E00E946F008091B8010E946800C1
S11301708FEA91E00E946F008091B80182958F70A0
S11301808A3010F0895C01C0805D0E946800809113
S1130190B8018F708A3010F0895C01C0805D0E94C4
S11301A0680084EB91E00E946F001092B8018FE325
S11301B09CE90197F1F700C00000CACF1F920F928B
S11301C00FB60F9211248F938091C6008093B801CB
S11301D08F910F900FBE0F901F901895F894FFCF3A
S11301E00A53697374656D612055415254202D2062
S11301F056697375616C697A6163696F6E20656EA7
S1130200205044322D5044370A00456E76696520EB
S113021063617261637465726573207061726120D9
S11302207665726C6F7320656E3A0A002D20504219
S1130230312D5042303A20322062697473206D614E
S113024073207369676E69666963617469766F7335
S11302500A002D205044372D5044323A2036206273
S1130260697473206D656E6F73207369676E696658
S11302706963617469766F730A0A0043617261632A
S113028074657220726563696269646F3A20002044
S10B029028307800290A00005F
S9030000FC
