:020000020000FC
:040000000C942E002E
:100040000C9459000FEF0DBF18E01EBF3F065B4F29
:10005000666D7D077F6F777C395E797100E0009374
:10006000C1000FEF0AB900E00BB950E0F0E0ECE49A
:10007000E50F54910E945100789440E050E04336DF
:10008000F1F744270E944900539554FD50E00C9429
:100090003F006627652FF0E0ECE4E60F64916BB952
:1000A000089505E005BD03E606BD01E000936E007E
:0C00B000089503E606BDA89A4395189534
:00000001FF
