:020000020000FC
:040000000C942E002E
:040010000C945900F3
:100040000C9493000FEF0DBF18E01EBF3F065B4FEF
:10005000666D7D077F6F777C395E797100E0009374
:10006000C1000FEF0AB900E00BB950E0F0E0ECE49A
:10007000E50F54910FEF04B900E005B900E007B9AE
:100080000FE308B903E000936C0002E000936800FE
:100090000E948B00789440E050E0C0E0C5B9433640
:1000A000E9F744270E948300539554FD50E00C94D7
:1000B0004E000F930FB70F9326B120FD0C946800EC
:1000C0000E947600C395C03161F4C0E00C947100C9
:1000D00021FD0C9471000E947600CA95CF3F09F46F
:1000E000CFE0D99A0F910FBF0F91189580E090E063
:1000F000A0EF83958030E9F793959030D1F7A395E1
:10010000A030B9F708956627652FF0E0ECE4E60F1C
:1001100064916BB9089505E005BD03E606BD01E0F5
:1001200000936E00089503E606BDA89A43951895BE
:00000001FF
