S00D00006C61625F352E7372656354
S11300000C9434000C9446000C9446000C94460066
S11300100C9446000C9446000C9446000C94460044
S11300200C9446000C9446000C9446000C94460034
S11300300C9446000C9446000C9446000C94460024
S11300400C9446000C9446000C9446000C94460014
S11300500C9446000C94B4000C9446000C94460096
S11300600C9446000C94460011241FBECFEFD8E038
S1130070DEBFCDBF21E0A0E0B1E001C01D92A630FB
S1130080B207E1F70E947A000C947D030C940000FF
S1130090ECE7F0E0108280818064808380818F7738
S11300A08083808180628083EAE7F0E0108280812F
S11300B0806880838081886080838081876080837A
S11300C0EEE7F0E080818360808308958770ECE739
S11300D0F0E09081907F892B8083EAE7F0E08081D3
S11300E08064808380917A0086FDFCCF80917900C2
S11300F090E00895F89484B1846084B98AB18860EA
S11301008AB917B868E070E082E00E94EA0060E013
S113011082E00E94C9008FE39CE90E94210160E013
S113012071E080E00E94670160E082E00E949E012D
S11301300E944800789480E00E94660062E00E9479
S113014032018FE39CE90197F1F700C0000081E0E0
S11301500E94660062E00E94C5018FE39CE901975A
S1130160F1F700C00000E7CF1F920F920FB60F9275
S113017011248F93EF93FF93EAE7F0E0808180618D
S11301808083FF91EF918F910F900FBE0F901F907E
S11301901895813019F0823079F00895613031F486
S11301A0E0E8F0E08081806C80830895E0E8F0E08E
S11301B08081806880830895613031F4E0E8F0E064
S11301C08081806380830895E0E8F0E0808180622C
S11301D08083089510928000109281006830710528
S11301E021F06115744039F00BC0E1E8F0E0908132
S11301F09260908305C0E1E8F0E09081956090837F
S1130200813019F0823061F00895E0E8F0E08081F7
S113021083608083E1E8F0E08081886080830895D2
S1130220E0E8F0E0808182608083E1E8F0E08081B2
S11302308861808381E090E09093010180930001C4
S1130240089520910001309101012130310529F4F4
S11302509093870080938600089510920101109274
S113026000010895613019F06230C9F00895809159
S1130270790090E090930501809304018295929512
S1130280907F9827807F982788519C4F90930301F3
S1130290809302019093890080938800089580914F
S11302A0790090E0909305018093040182959295E2
S11302B0907F9827807F982788519C4F90930301C3
S11302C08093020190938B0080938A00089510928A
S11302D0B0001092B1006038710599F020F46034D8
S11302E0710549F020C0611581E0780781F061153E
S11302F0744099F018C0E1EBF0E080818460808361
S113030017C0E1EBF0E080818560808311C0E1EBF0
S1130310F0E08081866080830BC0E1EBF0E08081B7
S11303208760808305C0E1EBF0E080818460808396
S1130330E0EBF0E08081836080830895813019F0E0
S1130340823091F00895662331F0E0EBF0E0808193
S1130350806C808305C0E0EBF0E08081806880835E
S113036084B1886084B90895662331F0E0EBF0E04D
S113037080818063808305C0E0EBF0E0808180624F
S113038080838AB188608AB90895CF93C62FBC014F
S113039080E090E00E94820220E030E048E45EE3E6
S11303A00E94100320E030E048EC51E40E94E70191
S11303B00E945302C13019F0C23021F005C060938D
S11303C0B30002C06093B400CF9108955058BB2786
S11303D0AA270E94FE010C94D6020E94C80238F09B
S11303E00E94CF0220F039F49F3F19F426F40C94B4
S11303F0C5020EF4E095E7FB0C94BF02E92F0E94BE
S1130400E70258F3BA17620773078407950720F0C9
S113041079F4A6F50C9409030EF4E0950B2EBA2F8B
S1130420A02D0B01B90190010C01CA01A0011124F6
S1130430FF27591B99F0593F50F4503E68F11A16A2
S1130440F040A22F232F342F4427585FF3CF469533
S113045037952795A795F0405395C9F77EF41F1655
S1130460BA0B620B730B840BBAF09150A1F0FF0F1F
S1130470BB1F661F771F881FC2F70EC0BA0F621F0B
S1130480731F841F48F4879577956795B795F795FB
S11304909E3F08F0B0CF9395880F08F09927EE0F90
S11304A09795879508950E94EF0288F09F5798F0DA
S11304B0B92F9927B751B0F0E1F0660F771F881F65
S11304C0991F1AF0BA95C9F714C0B13091F00E947F
S11304D00903B1E008950C940903672F782F882746
S11304E0B85F39F0B93FCCF3869577956795B395A6
S11304F0D9F73EF490958095709561957F4F8F4F15
S11305009F4F0895E89409C097FB3EF49095809519
S1130510709561957F4F8F4F9F4F9923A9F0F92FC5
S113052096E9BB279395F695879577956795B79543
S1130530F111F8CFFAF4BB0F11F460FF1BC06F5F29
S11305407F4F8F4F9F4F16C0882311F096E911C03B
S1130550772321F09EE8872F762F05C0662371F05C
S113056096E8862F70E060E02AF09A95660F771F70
S1130570881FDAF7880F9695879597F9089597F964
S11305809F6780E870E060E008959FEF80EC089535
S113059000240A941616170618060906089500245E
S11305A00A9412161306140605060895092E0394D8
S11305B0000C11F4882352F0BB0F40F4BF2B11F44C
S11305C060FF04C06F5F7F4F8F4F9F4F089557FDAB
S11305D09058440F551F59F05F3F71F04795880FAD
S11305E097FB991F61F09F3F79F087950895121644
S11305F013061406551FF2CF4695F1DF08C01616F0
S113060017061806991FF1CF8695710561050894A0
S11306100895E894BB2766277727CB0197F90895B7
S11306200E9423030C94D6020E94C80238F00E9450
S1130630CF0220F0952311F00C94BF020C94C50254
S113064011240C940A030E94E70270F3959FC1F3EE
S1130650950F50E0551F629FF001729FBB27F00D6C
S1130660B11D639FAA27F00DB11DAA1F649F6627C1
S1130670B00DA11D661F829F2227B00DA11D621F10
S1130680739FB00DA11D621F839FA00D611D221FCA
S1130690749F3327A00D611D231F849F600D211DAE
S11306A0822F762F6A2F11249F5750409AF0F1F031
S11306B088234AF0EE0FFF1FBB1F661F771F881F9A
S11306C091505040A9F79E3F510580F00C94BF0211
S11306D00C940A035F3FE4F3983ED4F38695779530
S11306E06795B795F795E7959F5FC1F7FE2B880F40
S11106F0911D9695879597F90895F894FFCF7C
S9030000FC
