:020000020000FC
:100000000FEF0DBF08E00EBF00E00AB90FEF0BB90C
:100010000FEF04B901E005B90FEF07B90FEF08B909
:1000200010E030E080E015B928B94A990E9422001A
:100030004B990E9427004C990E942C004D990E94D8
:100040003100F1CF0E943400139515B9ECCF0E9416
:1000500034001A9515B9E7CF0E943400339538B9AA
:10006000E2CF0E94340033952FEF2A952030E9F734
:100070002FEF2A952030E9F72FEF2A952030E9F766
:020080000895E1
:00000001FF
