:020000020000FC
:100000000FEF0DBF08E00EBF00E00093C1000FEF3F
:100010000AB900E00BB90FEF04B900E005B960E8D8
:100020006093610064E06093610000E007B90FEF46
:1000300008B910E040E0339B0E942B00329B0E94E5
:100040003100319B0E943700309B0E943D00349B61
:100050000E944B00F0CF0E94520013950E94430073
:1000600008950E9452001A950E94430008950E942C
:10007000520043950E94430008950E9452004A9501
:100080000E94430008951F704F704295512F542BCA
:1000900042955BB908950E945200712F740F7F71D1
:1000A00075B9089520E030E023952030E9F73395C5
:0600B0003030D1F7089585
:00000001FF
