S01000005072656C61625F362E7372656329
S11300000C9434000C9451000C9451000C94510045
S11300100C9451000C9451000C9451000C94510018
S11300200C9451000C9451000C9451000C94510008
S11300300C9451000C9451000C9451000C945100F8
S11300400C9451000C9451000C94AF000C9451008A
S11300500C9451000C9451000C9451000C945100D8
S11300600C9451000C94510011241FBECFEFD8E022
S1130070DEBFCDBF11E0A0E0B1E0E2E8F1E002C0F4
S113008005900D92A833B107D9F721E0A8E3B1E0B8
S113009001C01D92A933B207E1F70E948F000C94AE
S11300A0BF000C9400008AB18E7F8AB98AB1826045
S11300B08AB91092C00088E98093C10086E08093D9
S11300C0C20087E690E09093C5008093C400089531
S11300D09091C00095FFFCCF8093C60008950F93C4
S11300E01F93CF938C01C0E003C00E946800CF5FD0
S11300F0F801EC0FF11D80818111F7CFCF911F9191
S11301000F910895282F30E0220F331F220F331F41
S11301102BB9829586958695837085B908958FEF5E
S113012084B98AB90E945300789480E091E00E94D7
S11301306F00809138018823E1F3809138010E9497
S1130140820089E191E00E946F00809138010E9451
S113015068008AE00E94680010923801EACF1F927A
S11301600F920FB60F9211248F938091C600809343
S113017038018F910F900FBE0F901F901895F8942F
S1050180FFCFAB
S11301820A496E6963696F206465205472616E73F3
S11301926D6973696F6E200A0043617261637465ED
S11301A272206D6F73747261646F20656E20707556
S10B01B26572746F733A2000BA
S9030000FC
