:020000020000FC
:040000000C942E002E
:100040000C9479000FEF0DBF18E01EBF3F065B4F09
:10005000666D7D077F6F777C395E797100E0009374
:10006000C1000FEF0AB900E00BB9249A259A50E0BD
:10007000F0E0ECE4E50F54910E947100789440E0C8
:1000800050E070E02C9866276BB92C980E946300B2
:100090002D9A2C986BB92D9888278BB92D980E9492
:1000A0006A002C9A2D988BB9443661F744275395F2
:1000B0005A3011F00C94420050E07395763009F0FC
:1000C000E1CF70E0DFCF6627652FF0E0ECE4E60FCC
:1000D000649108958827872FF0E0ECE4E80F84917D
:1000E000089505E005BD03E606BD01E000936E003E
:0C00F000089503E606BDA89A43951895F4
:00000001FF
