:100000000C9434000C9451000C9451000C94510049
:100010000C9451000C9451000C9451000C9451001C
:100020000C9451000C9451000C9451000C9451000C
:100030000C9451000C9451000C9451000C945100FC
:100040000C9451000C9451000C941C010C94510020
:100050000C9451000C948C010C9451000C945100A0
:100060000C9451000C94510011241FBECFEFD8E026
:10007000DEBFCDBF11E0A0E0B1E0E0E8F3E002C0F8
:1000800005900D92A03AB107D9F721E0A0EAB1E0BE
:1000900001C01D92A43AB207E1F70E948E000C94B1
:1000A000BE010C9400008AB18E7F8AB98AB1826049
:1000B0008AB91092C00088E98093C10086E08093DD
:1000C000C20087E690E09093C5008093C400089535
:1000D00080E680937C008FE880937A00EEE7F0E082
:1000E00080818160808308959091C00095FFFCCF4E
:1000F0008093C60008950F931F93CF938C01C0E0A7
:1001000003C00E947400CF5FF801EC0FF11D8081E5
:100110008111F7CFCF911F910F9108958FEF84B97F
:100120008AB90E9453000E946800789480E091E0B0
:100130000E947B008091A101813019F08230E1F0B2
:10014000F9CF8AE00E94740083E191E00E947B0075
:100150008AE00E9474008AE291E00E947B008AE0BB
:100160000E94740080E491E00E947B008AE00E947B
:1001700074001092A101DECFEAE7F0E08081806494
:1001800080831092A1012FEF86E791E021508040FB
:100190009040E1F700C00000CDCF0F931F93CF93A5
:1001A000DF93D82FCDEC8C9F812D1124182F16951D
:1001B00016951695110F912F990F990F190F9D2FC5
:1001C000911B192F8695869586958C9FC12D11249C
:1001D000C695C695C695CC0F9C2F990F990FC90F40
:1001E0008C1BC82F09E2D09F012D112402950F709E
:1001F00089E591E00E947B0080E3800F0E947400FB
:1002000080E38C0F0E94740080E3810F0E947400D1
:100210008AE00E9474008D2F90E0880F991F880F4C
:10022000991F8BB9D295D695D695D370D5B9DF9154
:10023000CF911F910F9108951F920F920FB60F92B9
:1002400011242F933F934F935F936F937F938F93DB
:100250009F93AF93BF93EF93FF938091C6008093DA
:10026000A3018091A3018A3009F445C08091A301C4
:100270008D3009F440C08091A001882309F11092CB
:10028000A00180E791E00E947B008091A3010E9481
:10029000740081E191E00E947B008091A30190E0D5
:1002A000880F991F880F991F8BB98091A3018295A0
:1002B00086958695837085B981E08093A1011BC0E6
:1002C0008091A101811117C08091A301813321F494
:1002D00082E08093A1010FC08091A301823341F499
:1002E00081E08093A00185E891E00E947B0003C03B
:1002F00081E08093A101FF91EF91BF91AF919F9118
:100300008F917F916F915F914F913F912F910F90BE
:100310000FBE0F901F9018951F920F920FB60F925D
:1003200011242F933F934F935F936F937F938F93FA
:100330009F93AF93BF93EF93FF9380917900809346
:10034000A2018091A2010E94CD00EAE7F0E0808145
:100350008061808381E08093A101FF91EF91BF9143
:10036000AF919F918F917F916F915F914F913F914D
:100370002F910F900FBE0F901F901895F894FFCFFC
:100380000A53697374656D6120496E6963696164BC
:100390006F0A0053656C656363696F6E6520756EE7
:1003A00061206F7063696F6E3A00312E204C656575
:1003B0007220506F74656E63696F6D6574726F0043
:1003C000322E20456E7669617220636172616374BA
:1003D0006572204153434949000A56616C6F72208F
:1003E000506F74656E63696F6D6574726F3A20004B
:1003F0000A43617261637465722072656369626940
:10040000646F3A20000A496E677265736520636104
:100410007261637465722041534349493A20000078
:00000001FF
